:020000041000EA
:1000000000B5324B212058609868022188439860DF
:10001000D860186158612E4B002199600221596106
:100020000121F02299502B49196001219960352056
:1000300000F044F80222904214D00621196600F024
:1000400034F8196E01211966002018661A6600F04E
:100050002CF8196E196E196E052000F02FF8012189
:100060000842F9D1002199601B49196000215960AB
:100070001A491B48016001219960EB211966A021F2
:10008000196600F012F800219960164914480160C1
:100090000121996001BC002800D000471248134993
:1000A000086003C880F30888084703B5996A0420EC
:1000B0000142FBD001200142F8D103BD02B5186610
:1000C0001866FFF7F2FF186E186E02BD00000240BE
:1000D000000000180000070000035F00212200005C
:1000E000F4000018222000A00001001008ED00E03C
:1000F00000000000000000000000000074B24E7A12
:1001000000200420F7010010CB010010CD010010E9
:10011000C9010010C9010010C9010010C901001077
:10012000C9010010C9010010C9010010CF01001061
:10013000C9010010C9010010D1010010D301001045
:10014000C1010010C1010010C1010010C101001067
:10015000C1010010C1010010C1010010C101001057
:10016000C1010010C1010010C1010010C101001047
:10017000C1010010C1010010C1010010C101001037
:10018000C1010010C1010010C1010010C101001027
:10019000C1010010C1010010C1010010C101001017
:1001A000C1010010C1010010C1010010C101001007
:1001B000C1010010C1010010C1010010C1010010F7
:1001C000EFF30580103800BE00BE00BE00BE00BECA
:1001D00000BE00BEF2EB8871C08D0110E08D0110F1
:1001E0003802001090A31AE71E481F49086006C88D
:1001F00081F3088810471D480068002801D019487D
:10020000F3E70DA40ECC002902D000F012F8F9E7B4
:100210001749184A002000E001C19142FCD116495B
:100220008847164988471649884700BEFDE701C937
:1002300001C29A42FBD37047E08D0110C00000203C
:10024000641B002084A8011000000420000004208A
:1002500084A80110001004200010042000000000F9
:10026000704700000000000008ED00E0000000D032
:10027000641B00209877002021510010E90C001029
:1002800019510010F8B5C0460448054B10B583421B
:1002900003D0044B002B00D0984710BD641B0020F6
:1002A000641B00200000000006480749091A8B1053
:1002B000C90FC91810B5491003D0044B002B00D04A
:1002C000984710BD641B0020641B00200000000044
:1002D00010B5074C2378002B09D1FFF7D5FF054B4C
:1002E000002B02D0044800E000BF0123237010BDA2
:1002F0004865002000000000DC760110054B10B5B9
:10030000002B03D00449054800E000BFFFF7CCFFF5
:1003100010BDC046000000004C650020DC760110D6
:1003200070B504680C4D201C291C03F035FA002818
:1003300003D00A4B0A4A1A6070BD802308491B0685
:10034000201CE61803F036FA044B002801D01D608B
:10035000F2E71E60F0E7C04600000CC2C870002043
:1003600000000C4270B50468134D201C291C03F0DA
:1003700021FA002805D0114B11481D60114B18605F
:1003800070BD0025201C291C03F006FA0B4B002829
:1003900002D00D481D60F1E71C60201C03F06EFACE
:1003A0000A4A0B4B02F06FFC00220A4B02F062FC7F
:1003B00002F04AFDE2E7C0460000B442D4700020DB
:1003C000B69C9744D87000200000C842C03E3A75E1
:1003D000E5B3B43F00005940F0B5C646012600B56C
:1003E000794B82B0017104000360080017000D0012
:1003F00000F02EFF3300AB40D0252D066B62380095
:10040000AB61677100F024FF3300FA20BB4080002D
:100410006B626B6101F0AAFD702301AF3B80C046A7
:10042000C046C046320023799A406A61C046C04641
:10043000C04602223900206817F0E2F8C046C046E4
:10044000C046320023799A40AA61C046C046C046E1
:10045000A023A27BDB001343E38145237A703B702A
:10046000C046C046C046320023799A406A61C04601
:10047000C046C04602223900206817F0C1F8C046C5
:10048000C046C046320023799A40AA61C046C046A1
:10049000C0464E4BE2881A40C0239B001343E380C2
:1004A0001B0A3B707A70C046C046C04632002379B2
:1004B0009A406A61C046C046C046022239002068A0
:1004C00017F09EF8C046C046C046320023799A40D5
:1004D000AA61C046C046C046F022238912011340DB
:1004E000DF221A4322811022904642461B0A134300
:1004F0003B70DF237B70C046C046C0463200237984
:100500009A406A61C046C046C0460222390020684F
:1005100017F076F8C046C046C046320023799A40AC
:10052000AA61C046C046C046294AE38813404246F5
:1005300013431BB29AB2E280120A3A707B70C04633
:10054000C046C046320023799A406A61C046C04620
:10055000C04602223900206817F052F8C046C04653
:10056000C046320023799A40AA61C046C046C046C0
:100570000122E3881343E3801B051A0D1B0F3B7018
:100580007A70C046C046C046320023799A406A61FC
:10059000C046C046C04602223900206817F030F835
:1005A000C046C046C046320023799A40AA61C04680
:1005B000C046C046637932209E406E6101F0D6FC91
:1005C00002B080BCB846F0BD00000440FF0C000043
:1005D000870F000070B5002182B00400282001F0D0
:1005E000B3FCC046C046C046C046C046C046012512
:1005F0002B006268D02693403606B361C046C046E1
:10060000C046C046C046C0460320002101F09CFC05
:10061000E02301A9DB01022220680B8016F0F0FF25
:100620000320002101F090FCC046C046C046C046F1
:10063000C046C04663689D407561C046C046C0461E
:10064000C046C046C04602B070BDC046037810B573
:10065000002B00D110BD0248FFF7BCFFFAE7C046EF
:10066000C8750020037810B5002B00D110BD0248DA
:10067000FFF7B0FFFAE7C04614770020F0B5DE467A
:100680004E4645465746E0B5002185B005005C481A
:1006900001F05AFC022003F067F90021060028202F
:1006A00001F052FCC046C046C046C046C046C046E7
:1006B000012423006A68D02793403F06BB61C046EF
:1006C000C046C046C046C046C0460320002101F0D7
:1006D0003BFC002303A932000B802868023316F08C
:1006E00097FF0320002101F02FFCC046C046C04602
:1006F000C046C046C04623006A6893407B61C0463E
:10070000C046C046C046C046C0463178737808111E
:100710008346981020408046181120408446C81116
:100720008146481082468A11224000928A10019226
:100730005246C81050404A11424058104240D8100A
:10074000424058114240D81150404A469F1127401C
:100750002240204082423CD058468A104240080045
:100760005840424040461440604004006046009AB1
:1007700060404740BA422CD03F2008400002184356
:10078000800803F01CF81F4902F0CFFFE62189051D
:1007900002F0CBFF041C300003F046F9EE681A4962
:1007A000301C03F007F800281CD11849301C02F057
:1007B000F3FF00280BD01449201C02F0FBFF002897
:1007C00005D0FE21A868890502F095FFA860EC60BD
:1007D00000E0EC68201C05B0F0BCBB46B246A94660
:1007E000A046F0BD0949201C02F0D6FF0028DCD04D
:1007F000FE21A868890502F081FFA860D5E7C04600
:10080000102700000000B443000087430000B442FA
:10081000F0B5DE4657464E464546E0B5A9488BB092
:10082000FFF72CFFA84902F066FFA849041C0490BA
:1008300002F0B8FF002804D0A549201C02F05BFF9D
:100840000490A44B0498196802F055FF059002F03B
:10085000DDFF061E43D0B421490001F09FFF9E4CEE
:1008600001390222E388B22900D8FCE11343E38076
:100870001B051A0D09AD1B0F2B706A70C046C046D0
:10088000C04601273A0023799A401300D02212066D
:1008900090465361C046C046C046022229002068E7
:1008A00016F0AEFEC046C046C04623799F40434680
:1008B0009F61C046C046C046F317F018584002F08A
:1008C00083FF864902F031FF854902F01AFF02F0EA
:1008D0009DFF0600322800DD3226012701E00027B7
:1008E00009AD804B98461800FFF7C8FE4346041C2C
:1008F000986802F08BFF430018180301181AC00013
:1009000002F062FF00218046201C02F0F7FE011C6D
:10091000404602F0F3FE7449041C069002F0EBFE20
:1009200002F0ACFF714A724B02F0CBF902F08CFA84
:10093000704B211C0790186802F0DDFE804602F023
:1009400065FF6D4BC2178418814654409C4206DCFB
:100950004146404602F018FF002800D0EEE0F34385
:10096000DB17334000240393002E47DD5A4BA84683
:100970009946042335009B46039E07E0FA20002198
:10098000C000013401F0E0FAB44236DA002FF5D0AD
:10099000A542F3DD4B465A464146DB8813431B050F
:1009A0001A0D1B0F0B704A70C046C046C0464B461E
:1009B00001221B799A401300D022120692465361FD
:1009C000C046C046C0464B460222186816F018FEC4
:1009D000C046C046C0464B4601221B799A401300D0
:1009E00052469361C046C046C046FA200021C0006E
:1009F000013401F0A9FAB442C8DB45463F4C079BDD
:100A00003F492360069B00223E480B6007F0A6FB8F
:100A1000210000223C4807F0A1FB3C4C06AB9C4661
:100A20000B2202232600624413700836013BA17991
:100A30003000009307F0B4FA0023A1792A00009354
:100A40003000023307F0B6FA022800D03DE12888D2
:100A5000C0BA404202F0A4F900222D4B02F013F973
:100A600000222C4B02F006F900222B4B02F002F977
:100A70000022294B02F044FA02F0E6F9049B274DCC
:100A8000274E284C28492B603360059B20600022AC
:100A900026480B6007F062FB31000022244807F073
:100AA0005DFB29000022234807F058FB00222100AB
:100AB000214807F053FB0BB0F0BCBB46B246A94639
:100AC000A046F0BDC87500200000AA4200003443D3
:100AD0000000B443C8700020D87500200000C8434F
:100AE00000008C42147700200000C842C03E3A75D6
:100AF000E5B3B43FD870002040420F00C06C002026
:100B0000C86C0020CC6C0020C46C0020706C0020ED
:100B1000000024400080664000807640B06C0020D9
:100B2000B86C0020806C002074760020787600205D
:100B3000BC6C0020B46C0020846C00204B46002B61
:100B400000D10CE74046002102F034FE604B022247
:100B50009846DB88002800D187E013434246D380C3
:100B60001B051A0D1B0F2B706A70C046C046C0468D
:100B7000434601221B7991469A401300D022120667
:100B800092465361C046C046C046434602222900F1
:100B9000186816F035FDC046C046C04643464A4672
:100BA0001B799A40130052469361C046C046C04626
:100BB00096206043474B984200DD80E0464901F0B3
:100BC000EDFD03960400864200DA7CE0039B002BD7
:100BD00000D113E7002C00D1C8E60293A34200DD48
:100BE00002943E4BB1469B4601232E00002445460D
:100BF0009A46B8464346002B01D0A14537DC042273
:100C0000EB8813431B051A0D1B0F33707270C0461F
:100C1000C046C04652462B79D0279A403F067A619B
:100C2000C046C046C04602223100286816F0E8FCE3
:100C3000C046C046C04652462B799A40BA61C0466B
:100C4000C046C046FA200021C00001F07DF9029B99
:100C50000134A342CEDC039B350047464E46A342F7
:100C600000DD83E6CAE6934301E6934376E75B46FD
:100C70000422DB8813431B051A0D1B0F337072709F
:100C8000C046C046C0465B4652461B79D0279A40B4
:100C90003F067A61C046C046C0465B46022231002C
:100CA000186816F0ADFCC046C046C0465B465246CA
:100CB0001B799A40BA61C046C046C0469FE796235A
:100CC0009624039389E7039080E705480549CFE61A
:100CD00024770020C06A010067020000D875002058
:100CE000CDCCCCCCCCE08040F0B5DE464E4645467F
:100CF0005746E0B589B004F0D1FAC84BD0249846E5
:100D0000C74BC84E9B46C84BC84D9946C84B240696
:100D10009A46C84B00210193C74BC84A0093012053
:100D2000C74B08F0F9FA192000F092FA80239B04CF
:100D300002A8636208F04EFAC24B02AA83CA83C3B8
:100D400003CA03C3FA207821800008F0FFFA0022CA
:100D50000021BC4B404608F0B3F805224146B94B90
:100D6000300007F07FFD43462800B74AB74908F036
:100D70001BF9002802D080239B04636109F040F92D
:100D800029000200B24BB34808F048F9002802D00D
:100D900080239B04636109F01BF929000200AE4B1C
:100DA000AE4808F06FF9002802D080239B046361ED
:100DB000002330000093AA4AAA4BA84907F0E2FD9D
:100DC000002802D080239B04636109F001F9290007
:100DD0000200A54BA54808F055F9002802D0802351
:100DE0009B046361002330000093A14AA14B9F49FB
:100DF00007F0C8FD002802D080239B04636109F03E
:100E0000FFF8290002009C4B9C4808F007F90028D5
:100E100002D080239B04636109F0F2F829000200EC
:100E2000974B984808F0FAF8002802D080239B04DA
:100E3000636109F0E5F829000200934B934808F03C
:100E400055F9002802D080239B0463610023300001
:100E500000938F4A8F4B8D4907F094FD002802D0F4
:100E600080239B04636109F0CBF8290002008A4BC0
:100E70008A4808F0D3F8002802D080239B046361DD
:100E800009F0BEF829000200854B864808F0C6F834
:100E9000002802D080239B04636109F0B1F8290087
:100EA0000200814B814808F021F9002802D08023FC
:100EB0009B0463610023300000937D4A7D4B7B4996
:100EC00007F060FD002802D080239B04636109F0D5
:100ED00097F829000200784B784808F09FF800281E
:100EE00002D080239B046361754B41460093754A91
:100EF0000023754808F02EF9002802D080239B04B7
:100F000063613000704907F077FD002802D080232C
:100F10009B0463616D4F6E49380006F05BFE012152
:100F20000A2000F061F901210B2000F05DF9012198
:100F30000C2000F059F96749674807F007F80321CA
:100F4000142000F051F90321152000F04DF9002282
:100F50000121142000F062F901210022152000F087
:100F60005DF95B46072207201F605A6000F070F9A8
:100F70005A460123526801219340636263615B46D4
:100F80000022586800F04AF90D2154481122FFF759
:100F900023FA4A46002393801360603393714B46D3
:100FA0004D4A083303CA03C3534652461F60092300
:100FB0000920536000F04CF9534601275B6800227A
:100FC0009F405346012158686762676100F026F927
:100FD0000E2206214248FFF7FFF90023FA202C4A8F
:100FE000052113603F4A800013603F4A136008F0F8
:100FF000ADF900280BD1002330003C4A07F028FF50
:10100000FA200521800008F0A1F90028F3D0300073
:1010100007F088FC404607F09DFF7AE64076002006
:10102000C8750020A8620020706C00205C7500204C
:1010300014770020851100104D1100102D110010A3
:1010400049110010386B0020288A0110E076011049
:10105000EC76011078760020FC7601108077002075
:101060007C7700204D06001014770110887700204F
:10107000847700206506001028770110B46C0020EA
:1010800040770110BC6C00205C770110D07000200C
:10109000CC7000202103001074770110C46C002074
:1010A00088770110CC6C0020A0770110E070002040
:1010B000DC70002065030010B4770110846C002000
:1010C0001108001040420F004C6B0020000004404B
:1010D00020A10700A0860100E4110020D87500209F
:1010E00024770020B06C0020806C002000E1F50522
:1010F00070B50C0000F0E4FF00230B4A06000D0061
:1011000001F0B2FB002320606160074A3000290033
:1011100001F0AAFB100053019B1A9A001218D2008A
:101120000020A26070BDC04640420F0010B5054CC3
:101130002378002B01D1012010BD04F0AFF800236B
:101140002370F8E72811002001207047F0B5C6464B
:101150000F001600984600B5002A0ED0002402E0C9
:101160000134A64209D03D5D280004F0E7F885422D
:10117000F6D00123424626001370300080BCB846EA
:10118000F0BDC046F0B5C64600B517001C00884645
:1011900000F096FF02000B00002F23D06101091B15
:1011A00089000919C9000C00CD17A4185D4100265B
:1011B00008E004F077F8831C0DD0434698550136BB
:1011C000B7420BD000F07CFF22002B00121A8B419B
:1011D0001000002BEDDA0123069A1370300080BC5A
:1011E000B846F0BD0026F9E710B54024084A830050
:1011F0009A181268C0005440C0222240054CA446F0
:1012000063441A60044B9C466044416010BDC04674
:1012100004C0014004D00140004001400B4B80005D
:101220009C46604400290ED100230431002A00D1DD
:101230001900802203685201594094460C236044EF
:101240000B40036070470C210823EFE704C0014006
:101250000123D02283404021120693629361094A00
:1012600083009A181268C0005140C0220A40064903
:101270008C4663441A60054B9C46052360444360DA
:101280007047C04604C0014004D001400040014006
:101290008023DB051868000F7047C0460FB400B507
:1012A000084883B004F096F8049B002B07D005A9EA
:1012B0001800019103F0FCFE034804F08BF80120B4
:1012C00003F00EFFC0770110D077011070B5EFF377
:1012D000108C72B60D4D2B68002BFCD0BFF35F8FC6
:1012E0000724CB08C618C05C01230C40A3401C0097
:1012F0000440034207D103433370BFF35F8F2C6078
:101300008CF3108870BD1000FFF7C8FF2C0100D0CF
:10131000F8B54746CE46884680B5EFF3108C72B6D6
:10132000214D2C68002CFCD0BFF35F8F9A422CD843
:10133000D4080727055D061901241740BC402C423C
:101340001FD007210127894609E0D408055D061949
:101350004C4639001440A1400C00294211D0013202
:101360009342F2D201204042BFF35F8F00220E4B26
:101370001A608CF3108800280FDBC0BCB946B04659
:10138000F8BD2C4310003470EEE7BFF35F8F0023ED
:101390002B608CF31088012040424346002BECD098
:1013A0000898FFF77BFFC0462C0100D0044A107854
:1013B000431CDBB2172B00D9102313707047C046B3
:1013C0002911002000B5054B83B0010000931822BD
:1013D0001F230348FFF79CFF03B000BDD477011023
:1013E000586C00200021044B044ABFF35F8F02C3F6
:1013F0009342FAD17047C046000100D0800100D06E
:10140000054B064A1360064A136053609360D3602D
:1014100013615361936170478080808000E400E035
:1014200004E400E01F2318401E3B8340002905D040
:10143000C021044A4900535013607047802201497B
:101440008B50FAE700E100E001228240034B1B6869
:1014500013405A1E9341D8B27047C04600E100E0E5
:1014600001238340014A13607047C04600E200E058
:10147000064B10309B688000C358054A00209B1A19
:101480002F229A424041C0B27047C04600ED00E0B2
:101490002C11002070B50D00EFF3108672B60F4AC4
:1014A0001368002BFCD0BFF35F8F0D4B10309B688F
:1014B00084001B590B4A934203D09D4201D001F096
:1014C00037F8074B9B681D51BFF35F8FBFF35F8FEA
:1014D0000022024B1A6086F3108870BD240100D0F0
:1014E00000ED00E0C1010010F0B557464E46DE4663
:1014F0004546E0B585B0060002911700EFF3108B6A
:1015000072B6674A1368002BFCD0BFF35F8F0025CB
:10151000644B5D579A46002D00DAA4E06B00624CE4
:1015200003935B199B009846A146C1444B46524623
:101530009B79103613705D4BB2009B6801929958ED
:101540000B1B2F2B34D95A4B994200D0A4E0039B9C
:10155000584A9C46584B6544AD006353434602339A
:101560006519E418554B0121043B1B1B1B055B0D42
:1015700013436B80524BEF71AB80FF23AB71029B27
:10158000AB604B460B431900484B019A9B6899503E
:10159000BFF35F8FBFF35F8F0022414B1A608BF365
:1015A000108805B0F0BCBB46B246A946A046F0BDC7
:1015B00001200A008243D379BB422FD845464E46CC
:1015C000130040491B1B5B415943090D3A4B6353C0
:1015D0003A4B02356519043B5B1B1B05354D5B0D12
:1015E0002B4373800426B446E0444444131F1B1B62
:1015F0004C46A17102991B05A16049465B0D2B4326
:10160000A380314BE77101431360BDE75800C01858
:1016100080002018C679BE422BD902000623D3567B
:10162000002BF3DA101D82462848804604267642B5
:10163000B446E14450464E46361A3005400D8246C7
:1016400056461C48957106439680039A9446654415
:101650001D4AAD00641922604246A371029BA2801C
:10166000E771A36090E700F063FF002553465D57E4
:1016700054E7101D82469088400500158446404678
:10168000D444664604302018301AE0260005400D88
:10169000360230438046C9E700F04AFF57E7C046AC
:1016A000240100D0937700202C11002000ED00E0F1
:1016B000C101001000E0FFFF00A1FFFF5C1100204E
:1016C00001BDFFFFAAAA00000148804701BD00003C
:1016D00070B501240443EFF30581EFF3108C72B66B
:1016E000214A1368002BFCD0BFF35F8F1F4B05000E
:1016F0001F4AED1A6D416A43120D1E4D8900AE68F6
:1017000052B27658A6421CD00621595691421CD09E
:1017100012215956914222D01E215956914220D071
:101720002A2159560324914210D0134B19781A706C
:101730008171BFF35F8F00220B4B1A608CF310880E
:1017400070BDAB680D4C5C50EFE7002461000919D7
:1017500089005B18FF21997109499980E5E7012407
:10176000F4E70224F2E7C046240100D02C11002047
:10177000AAAA000000ED00E093770020C10100104C
:1017800001BDFFFF00B5074B83B0010000930022AD
:1017900005230548FFF7BCFD002801DB1F23181AAD
:1017A00003B000BDF077011097770020024B9C46F4
:1017B000614489000160704740000034F8B5134D62
:1017C000134E2C00FF27B5421ED22368002B0FD0EA
:1017D000FFF7ECFD01002800FFF7E8FFA780BFF34B
:1017E0005F8F0834B4420FD223682500002BEFD15D
:1017F000FFF7DCFD01002800FFF7D8FF2771BFF3DA
:101800005F8F0834B442EFD3F8BDC046541B0020AC
:10181000641B002010B50400FFF7C8FD0100200084
:10182000FFF7C4FFFF232371BFF35F8F10BDC046D6
:1018300010B504000120FFF7C5FD044B9C46604431
:1018400080002060BFF35F8F10BDC04640000034B1
:10185000034B9C46614489000160BFF35F8F704772
:10186000400000340A4B1968EFF3108072B60A6822
:10187000002AFCD0BFF35F8F1B68BFF35F8F00228D
:101880001A6080F3108840BF002000217047C046D6
:1018900014760020F0B5DE4657464E464546E0B584
:1018A00085B0EFF30582032313409A0011000392E1
:1018B000B64A5258904601229A409146B44B1A605B
:1018C0004B46B4484363434608229B5E9A46002B2E
:1018D0003DDA43469B881BB2002B00DBA1E0434668
:1018E0009B79002B00D0F3E0434608241C5F002CBA
:1018F00023DB42465269630094461B19DB006344B4
:101900009C68DD68631C00D10FE1A24803998446FE
:101910006144826A0B69A61A9B1A9E4215D34A46F5
:10192000036A1A4211D09B4800F0C2FB241A8D4171
:10193000002D02DCC4D1002CC2D040BF05B0F0BCE9
:10194000BB46B246A946A046F0BD0C61EBE7424655
:1019500052695B0093465344DB009B445B469E68A0
:10196000DF6800F0A5FB801BB9410029B1DB002F27
:1019700000DAE5E05B46884A1B69934200D1D8E073
:1019800041465A460820085E5288000410435A46D1
:101990005169984704000D0023002B4300D1CFE08C
:1019A000002D00DBE8E0361BAF4134003D005B4614
:1019B0009C60DD600021595E002900DA89E743461A
:1019C0005B6922009C462B0048004018C000604420
:1019D0008668C768921BBB41002B00DA79E7434653
:1019E000664602000094019519810CE07B00DB192A
:1019F000DB00F318009801999C68DD68001BA94181
:101A0000002904DB1A000023D75E002FEEDA5B46C4
:101A10001F805346138043469B881BB2002B00DA7D
:101A20005DE743461A69EFF3108172B61368002B25
:101A3000FCD0BFF35F8F43469B8842461BB29A4659
:101A400001235B4293801369BFF35F8F00221A600A
:101A500081F310885346002B00DA40E743465B6968
:101A60009C46082343449B4653465F0043465744E5
:101A7000FF0008229A5E67445E46BC68FD68002A43
:101A800019DB3B000094019567469C4604E01E006C
:101A90000023F25E002A0BDB0098019953009B188B
:101AA000DB00FB189C68DD68001BA9410029EEDA09
:101AB0006346BC461F005346338000217B5E3A805C
:101AC0009A46002BD0DA43469B79002B00D10BE7D6
:101AD000002342469371434646460821595E083624
:101AE0004B1C00D129E747468C46556902E00600A9
:101AF0004B1C17D04B005B18DB00E8180A00E95EAE
:101B000043881BB2002BF2DA01235B42DC178360AF
:101B1000C4606245ECD031803B89944603803A81B1
:101B20004B1CE7D1B8466446E1E66B1C00D0ECE6FE
:101B3000F9E65B465C69200023699847002821D1BB
:101B40005B4642461B8813811269EFF3108372B61D
:101B500011680029FCD0BFF35F8F42465946528876
:101B60000A804246514651801269BFF35F8F0021BF
:101B7000116083F31088ACE6064800F099FA241847
:101B80004D4114E76568246806E7C0468475002067
:101B90003C700540004005409518001070B52E4C73
:101BA0002569002D04D00A212C48FFF7FFFD70BDE8
:101BB0002B4E0321300000F071FAE660FFF7F6FBD0
:101BC000284B03229C46D02322701B061B68012150
:101BD0006370254B6044A3600F23800020610220C6
:101BE000638063694942A1801980023119864731B7
:101BF0001D83585218315A5275325C399952183235
:101C000001319952183201319952183201319952E9
:101C1000083518329D52023118329952183201316A
:101C200099521832013199521832013199521832B1
:101C3000013199521832013199520C4B0C49DC6038
:101C400001303562FFF726FC01210320FFF7EAFB94
:101C5000084B1D60A7E7C0467411002014760020D1
:101C60000040054040000034FFFF10008475002054
:101C70009518001038600540004870477411002026
:101C8000F8B51F0008AB1B7804001600002B07D125
:101C900000F016FA32003B00121A8B41002B4CDB8D
:101CA0002269EFF3108072B61368002BFCD0BFF3EB
:101CB0005F8F62690223E15E94464B005B18DB0094
:101CC0006344002901DB1A8862802269BFF35F8FB9
:101CD0000025156080F31088002930DB069A9E608D
:101CE000DF601A61079A5A615A8801325204520C15
:101CF000161C002A1FD0B0B20A045E801043266969
:101D0000EFF3108572B63268002AFCD0BFF35F8F04
:101D1000A2881A80A1802369BFF35F8F00221A6016
:101D200085F31088074923788C4601329A40E3688E
:101D300063441A60F8BD0126DDE70020FAE70120C0
:101D40004042F7E73C20000070B5C646010000B5F0
:101D50000469EFF3108C72B620680028FCD0BFF342
:101D60005F8F02200D5E48696C0080466419E400B4
:101D70004444002D01DB208848800869BFF35F8F51
:101D8000002606608CF31088002D30DBE36063884A
:101D90000598013320615B0406985B0CA2606061CA
:101DA0001A1C002B21D090B22B04628018430A69C0
:101DB000EFF3108672B61368002BFCD0BFF35F8F71
:101DC0008B8823808D800B69BFF35F8F00221A60A0
:101DD00086F310880B7801329A40CB6805498C460F
:101DE00063441A6040BCB04670BD0122DBE70120AD
:101DF0004042F7E73C20000010B543890A149342A3
:101E000033DD53009B184269DB0094460469634448
:101E1000EFF3108C72B62268002AFCD0BFF35F8FFC
:101E20005A88090494B2090C8A4208D00369BFF3A6
:101E30005F8F00221A608CF31088002010BD802272
:101E4000120214435C80012302698371BFF35F8F28
:101E5000002111608CF31088054902788C4693406C
:101E6000C268012062441360E8E70020E6E7C0464C
:101E70003C20000040787047F0B504000D000626B5
:101E80007642F717C64636196F4100B582B08F42C9
:101E900014D811D000F014F932003B00121A8B4113
:101EA000002B15DC002B44D02000290000F03CF969
:101EB00002B080BCB846F0BD8642EBD900260027B0
:101EC00000F0FEF832003B00121A8B41002BE9DDD6
:101ED00000F0F6F832003B00121A8B41002B0ADBAF
:101EE00000230193144B3200009314483B00FFF78A
:101EF0002BFF0028D8DBB0460026BC46104A114F05
:101F00007B6A9C4504D8B96A8845CDD99C45CBD11C
:101F10001168EFF3108072B60B68002BFCD0BFF392
:101F20005F8F1368BFF35F8F1E6080F3108820BF40
:101F3000E6E7002AB8D0CBE765180010741100203E
:101F4000147600200040054070B504000D0000F03C
:101F5000B7F800196941002902DBFFF78DFF70BD5A
:101F6000012001494042F8E7FFFFFF7F70B50600FE
:101F700000F0A6F8FA2204000D0000233000002132
:101F8000920001F09BFB00196941002902DBFFF779
:101F900073FF70BD012001494042F8E7FFFFFF7F5A
:101FA000F0B5CE46474680B504000D0083B0EFF390
:101FB0000587002F0DD0364A0020536A8B4203D389
:101FC000926A0130A24250D303B0C0BCB946B046B9
:101FD000F0BD304B9846DB689946434648461E782C
:101FE00000F066F80B00494602000436B60071584E
:101FF00020008E1A2900801A99418F4211DC0ED0E0
:1020000020BF234A0020536AAB42DDD3926A0130DD
:10201000A242D9D2E81A421E9041C0B2D4E7864209
:10202000EED900F04DF822002B00121A8B41002B44
:1020300020DB00230193184B2200009340462B0025
:10204000FFF782FE011E15DD114B2E005A6A9542E4
:102050001CD89B6AA34217D34046FFF7CDFE0C4A1B
:102060000020536A9E42AFD8D0E7581A421E9041D2
:10207000C0B2A9E7064A0020536AAB42A4D3926AD1
:102080000120A242A0D2C5E79542E5D120BFE3E7F7
:1020900000400540741100206518001010B5024A78
:1020A0000248FFF713F910BD0C7801105C6C00209A
:1020B0000300416A0A00986A596A8A42FAD1704755
:1020C000034B596A0A00986A596A9142FAD17047DB
:1020D0000040054070B504000D00124A536A190013
:1020E000966A536A8B42FAD13000190024184D4188
:1020F000AB4211D80ED02B000A494A6A9A42FCD34F
:1021000007D1084A02E0516A994202D1916AA1427C
:10211000F9D370BDA642EED9012301246442E5172C
:102120005B42E9E700400540064A536A9942FCD801
:1021300007D1044B02E05A6A914202D19A6A824264
:10214000F9D3704700400540F8B5DE464E46574685
:102150004546E0B58B4605000A991800160000F0C8
:1021600045FB0A9B6C001F02324B64199C46A4007D
:102170006444636881469F4200D967602B1FDBB2CD
:102180009846012B30D9C02380229B01E31812010D
:102190001A60294BAD0059599A4600291BD1226873
:1021A00076017240E0268023164042465B01E31828
:1021B0001E60012A30D9802380229B01E31812017E
:1021C0001A6053464A4667605A51F0BCBB46B24655
:1021D000A946A046F8BD586900F008FB431C58000A
:1021E000C0180338FDD2DAE75B46012BCBD1C02300
:1021F00003229B01E3181A60023AA3681A42FCD03A
:10220000E0232268760156401E4080230A4A5B0183
:102210009246E3181E60AD005A46216851400322E1
:102220000A401A6001225B469A40A3681A42FCD019
:10223000C1E7C04600800040886C0020F0B54646EB
:102240004F46D646C0B51F00344B44009C46241868
:10225000A4006444636888461600FF2B02D88023DC
:102260005B006360031FDBB29A46012B30D9C023A9
:1022700080229B01E31812011A60294B85005959ED
:10228000994600291BD1226876017240E0268023FE
:10229000164052465B01E3181E60012A30D98023A4
:1022A00080229B01E31812011A6080235B006360A7
:1022B0004B465F51E0BCBA46B146A846F0BD5869EE
:1022C00000F094FA431C5800C0180338FDD2DAE736
:1022D0004346012BCBD1C02303229B01E3181A6094
:1022E000023AA3681A42FCD0E023226876015640E5
:1022F0001E4080230A4A5B019146E3181E60850058
:1023000042462168514003220A401A600123424696
:102310009340A2681342FCD0C1E7C0460080004051
:10232000886C0020014B8000C0587047886C0020EA
:10233000F8B5040020481D0017000E0000F056FA02
:102340000100380000F052FA069B29041B031943D0
:102350002368002B1EDB194B194DE21853425A41DA
:1023600080235B019C461203164B62441A60164B95
:102370001A6017002B689F43FBD1144B2660E218AC
:102380002123A06013602368002BFCDA0823E1609E
:102390001360F8BD3F2322681340B342DBD1A3682A
:1023A0001B051B0D8342D6D1EE22E368D2021340F7
:1023B0008B42D0D1EDE7C046001BB7000040FDBF07
:1023C00008C0004000E0004000F000400430000081
:1023D00010B5140080221B4BD2051A6000281AD0B9
:1023E0000123194A1843194BDA61194A42401A620B
:1023F000596298628022134BD2051A601549164A19
:102400001160E022D2041A60002C07D18022134B05
:1024100012061A6010BD0D4BD861EBE763011B1B60
:102420009A008023121912015B049A4200D30C4ACD
:102430000C4B1A60054B5A608022084BD2051A607B
:10244000E8E7C04600B00540D3C007B000800540B3
:102450002D3FF84FFCFF01000820014000A005407F
:10246000FFFFFF00587500208023024A9B000B43AA
:10247000D362704700800540142310B5010018880E
:1024800004331B88984710BD162310B50100188827
:1024900002331B88984710BDF8B54746CE4680B535
:1024A0000F1E19D014239946043304000025012679
:1024B00098464B461888434621681B88984701C4B4
:1024C000431E9841013540420640AF42F1D13000F1
:1024D000C0BCB946B046F8BD0126F8E7142370B574
:1024E0000400188804331B880D0005499847030031
:1024F0000020002C01DB0130A04029009847C04695
:1025000055420000AA23064A1B0113608D235B007D
:10251000D3600449044B19605368002BFCDA704700
:102520000040024000B0FA00006002407047C04620
:1025300010B50148FEF7B2FE3078011070B5074DB6
:10254000074EB54209D20024013E761BB60808CDDD
:10255000984723000134B342F9D170BD9076011041
:10256000CC760110054B064A06491A60064A074B0D
:102570001A6010000B689843FBD1704700E00040E0
:10258000BFCDFBFE08C00040FE7F3C0000F00040D5
:10259000044BDB6C002B03D18022034BD2021A6068
:1025A0007047C046000011504C201150044A054BA2
:1025B0001A60054A1368DB018033FBD17047C046BF
:1025C000FFFFFF0100F0004008C000404022034B25
:1025D0009A675A671A67DA667047C04600F001408A
:1025E00010B5FEF7FFFE10BDF8B52D492D4C2E4D50
:1025F000641AA6103200302E00D930222800920032
:1026000001F030FABC2C41D80123711C08009C4613
:10261000264A30293DD92F272C196407E30FBF1B09
:10262000052F19D9302917D8002B36D0B1006A50A0
:102630006146CC1AF3189B006108EB18C900C91851
:102640001A605A6008338B42FAD101232100994362
:1026500046188C421AD0711CB300EA50302915D0AC
:1026600089006A50B31C2E2E10D09B00EA50F31C38
:102670002D2E0BD09B00EA50331D2C2E06D09B0034
:10268000EA50731D2B2E01D09B00EA50084B9D6031
:10269000F8BD2F339B1B9C46BDE73000C8E7C04602
:1026A00000010010C001001000000020C101001056
:1026B00000ED00E0002310B5294C82B0A367FFF7BE
:1026C00021FF0122274B1A60636C012BFCD10322EE
:1026D000254B1A60224A936B012BFCD101330093E6
:1026E0000121224A22480433FFF722FE052301215B
:1026F0000093204A2048FFF71BFE002202210420FD
:102700001E4BFFF79BFD0022012105201C4BFFF70C
:1027100095FD0022002107201A4BFFF78FFD0022B4
:1027200000210820174BFFF789FD8023DB00009371
:10273000002200210920134BFFF706FD0022104B59
:1027400000210620FFF77AFD0420FFF7EBFD0E497C
:1027500000F04CF801000020FFF786FE02B010BD2B
:10276000008000403CB0004030B00040002F68596D
:1027700000800240008C864700C00240001BB7006A
:1027800040597307006CDC0240420F0001480421ED
:10279000014B18479011002099240010124A936FA2
:1027A0009B0815D29066D166002905D0FFE7FFE7A8
:1027B000FFE7516F106F704704B580210906C217FB
:1027C0005140002800D0C84314F002FF002104BD8E
:1027D000F0B5146E556E576F166FFFF7E3FF146672
:1027E000556657671667F0BD000000D0114A936F19
:1027F0009B0813D210665166002905D0FFE7FFE75A
:10280000FFE7516F106F704704B5002801D000201A
:10281000C04314F0DDFE002104BDC046F0B5146EC7
:10282000556E576F166FFFF7E5FF146655665767CD
:102830001667F0BD000000D094464A4A926F920895
:10284000624601D228E0C046F0B5464E346E756E41
:10285000776F366F00F020F89446424A146655664A
:10286000576716676246F0BD94463E4A926F9208DB
:10287000624601D254E0C046F0B53A4E346E756EF1
:10288000776F366F00F04CF89446364A14665566FA
:10289000576716676246F0BD002B24DB11D0002974
:1028A0003EDA00B5C943404200D1013100F038F8AA
:1028B000C943404200D10131DB43524200D10133D0
:1028C00000BD002AEBD1002801D1002905D000204D
:1028D000C90FC90701D1C043410800B514F068FE13
:1028E0000022002300BD00B500290ADBDB43524271
:1028F00000D1013300F014F8C943404200D1013146
:1029000000BDC943404200D10131DB43524200D1F6
:10291000013300F005F8DB43524200D1013300BD22
:10292000002923D1002B18D1002A0CD0BC460D4F12
:1029300038667A6600210023FFE7FFE7FFE77A6F3A
:10294000386F67467047002801D00748010000B57E
:1029500014F02EFE0022002300BD02000B00002018
:1029600000217047000000D0FFFFFFFF002B00D0C8
:10297000BFE0130C28D1002AE7D080B4114F39668C
:102980007A66FFE7FFE730B4040C7B6F396F1B04F6
:1029900023433B667A66FFE7FFE7FFE7C04684B262
:1029A0007B6F3D6F1B0423433B667A66FFE7FFE7BF
:1029B000C04600232C042D0C7A6F386F0019694132
:1029C000B0BC7047000000D0F0B594460025140E4E
:1029D00001D112020835140F01D112010435940FF0
:1029E00001D192000235D40F01D152000135D40B30
:1029F0000134254F7C66254C3C660E0C93B2FFE7F4
:102A0000FFE7FFE73C6F6643360C7703BE46734330
:102A1000DF0B5B04C01AB941130C7343DB18C91AEE
:102A2000CE086643360CB64493B273431F0F1B01A6
:102A3000C01AB941130C73431F0B1B05C01AB941CF
:102A4000860D8F023E436643360C092D24DB520A65
:102A50007243801A7703460A6643360C16235B1BC3
:102A6000DE40DF40BF1964466643821B7046043572
:102A700006330100D940A840C01900D30131A24259
:102A800006D20023F0BD0000000000D0FFFFFFFFD2
:102A9000121B0130F3D3F1E709277F1BFE40644688
:102AA000A2B27243801A00D20139220C7243130C75
:102AB0001204821A99410B00704604351337010045
:102AC000F940A840801900D30131002B02D1A24265
:102AD0000AD2F0BD013000D30131121BFAD2013B02
:102AE000F8D1A24200D2F0BD013000D30131121B57
:102AF000F7E7F0B51C0C00D080E00CB400251C0AF0
:102B000004D11B02160E3343120208351C0B04D1EC
:102B10001B01160F3343120104359C0B04D19B009B
:102B2000960F334392000235DC0B02D192185B41C1
:102B300001351C00971864410134464F7C66464CB1
:102B40003C660E0CFFE7FFE7FFE7C0463C6F6643BD
:102B5000360C7703BE4697B27743C01B00D20139CB
:102B6000C01B00D201399FB27743C91BC91B170C88
:102B700077437E04FF0B801BB941CE086643360CB9
:102B80000C2D33DBB644120B1F053A431B0B97B2D7
:102B90007743C01B00D201399FB27743C91B170C82
:102BA00077433E043F0C801BB941860D8F023E43A4
:102BB000664329277F1BFE400C3D7746AF40BF1977
:102BC00030BCA2B2ABB272437343801A9941220C5B
:102BD0007243130C1204801A994102000B00013752
:102BE000001BA941F9D2781E0021F0BD0C277F1BE4
:102BF000FE4077467F0BAF40FF19E0E700245D1CE5
:102C000007D0144F7D663966FFE7FFE7FFE7FFE770
:102C10003C6F95B29EB265436643401BB141150CB3
:102C20001E0C6543664336042F0C3E432D04401BA7
:102C3000B141994204D202000B0020000021F0BDF6
:102C400001D19042F7D3801A994101349942F2D3CD
:102C5000F6E70000000000D0FFFFFFFF48404140C2
:102C6000484018B41B4B5B68FC46019308BD04DF69
:102C7000A330001018B4174B1B68FC46019308BD25
:102C800000DFAD3000109446134A926F920809D2CB
:102C9000624618B40F4BDB68FC46019308BD0CDF9D
:102CA000653300100C4AF0B5146E556E576F166FF1
:102CB0006246FFF7EEFF084A1466556657671667C7
:102CC000F0BD18B4034B9B68FC46019308BD08DFB8
:102CD0000932001048630020000000D0FFB55040CA
:102CE0004240504059404B40594000E0FFB5154F1D
:102CF0004C00640D03D0BC4204D10C0314D8002056
:102D0000090D09055C00640D03D0BC4204D11C030D
:102D10000AD800221B0D1B0501264B4009D44B404D
:102D200003D58B4200D18242FFBD9942FCD1904233
:102D3000FFBD0B43DB1803431343F5D0C9434918C8
:102D4000FFBD0000FF07000000B5FFF7CFFF804187
:102D500000BDC04600B5FFF7C9FF01D9002000BD86
:102D6000012000BD00B5FFF7B9FF01D9002000BD6B
:102D7000012000BD00B5FFF7B1FF804100BD01207B
:102D800040054A00121804D85A00121801D8002031
:102D900070470120704700000021002805D17047CE
:102DA000C1174840401AFAD0C90713B5064B1B6833
:102DB00098470CBC441CA2401005120B0349091B88
:102DC00009051943114310BD107600201F040000AF
:102DD00010B54C00620D8023D218DB00D21A5B05BF
:102DE0007E2A10DD9E3A13DACC17090349081943ED
:102DF0005242D140640001341532202A05DAD04015
:102E00000843604310BD002010BD0846604310BD5C
:102E1000C80FC018013810BD18B4044B5B6AFC46DB
:102E2000019308BD24DF1535001000004863002021
:102E300018B4044B1B6EFC46019308BD60DF0B36D3
:102E4000001000004863002018B4044BDB6FFC4600
:102E5000019308BD7CDF9535001000004863002019
:102E6000132370B51D78012D19D014DD1E48FFF70E
:102E70000BFB06001D48FFF707FB1D4C80223100AD
:102E8000200000F0EFFD022D06D01A48FFF7F4FAFB
:102E9000194B186070BD164C184BA364F5E7174B1F
:102EA000134C23606360A360E36023616361A361EB
:102EB000E36123626362A362E36223636363A363E8
:102EC000E36323646364A364E36423656365A365C8
:102ED000E36523666366A366E36623676367A367A8
:102EE000E367A364D1E7C0465344000053460000A3
:102EF000486300204C330000107600207130001031
:102F0000F0B557464E464546DE461C00E0B50D007E
:102F10006400640DA246534C1E006B00010085B096
:102F200028005B0DA34267D05446002C64D0EC0F00
:102F30000394002B0CD10025002C60D10024280024
:102F4000210005B0F0BCBB46B246A946A046F0BD84
:102F50000D0004005345F2DB0C00802149038C4630
:102F60000003000B014336030D00310B16006246CF
:102F70000A43170052469B1A9846002B5EDD01203B
:102F800039114042FFF732FC834616E022009A4096
:102F9000019223004A469340481032000093C9171B
:102FA0003B0000F08BFB009C019D43464A469B1A68
:102FB000241A8D419846002B24DD4346C1460C2B34
:102FC00001DD0C2399465B46A9114A4659431D234E
:102FD0009B1A202219414B46524201319B18D5D5EC
:102FE0004A4620239B1A2200DA40484613002A0052
:102FF00082401A430192CCE700251B4C9FE78024B6
:1030000024069CE7AF4220DD002D05DAA4197D419E
:10301000002D01DAA4197D41039B002B04D022006E
:103020002B00002554429D415346104A20002900A0
:10303000D21AFFF7FDFE05000C0080E7AF42EBDC83
:10304000AF420BD0A41BBD41E6E7AF4201D1A6427F
:10305000DAD8A41BBD41AF42F2DDDDE7A642F1D9CB
:10306000DAE7C046FF0700000000F07F33040000ED
:1030700007B5604601880A0A0230DF2AFAD1C9B2D0
:10308000820804D3028840880004104300E00068EE
:10309000014A5050039007BD486300200FB403BCA1
:1030A0000CBCF0B50124E407634000E0F0B50C0D62
:1030B000CF0F661E3605891B640503D3C943404202
:1030C00000D30131640D03D0661CF60A07D0E41B5F
:1030D00000207F00791C89078912803C24031D0D84
:1030E000DF0F6E1E36059B1B6D0503D3DB4352427B
:1030F00000D301336D0D03D06E1CF60A07D0ED1B13
:1031000000227F007B1C9B079B12803D2D032F1B01
:10311000661B58D4A446202E46DA20371400BC4043
:103120001D00BD40F24033412A4380185941CB0F66
:1031300005D0C943C0430022644250415141624618
:103140004D0D28D10D0D07D100281FD02419404165
:103150004941013A0D0DF9D0640006D3013000D386
:103160000131002C01D140084000013A0BD4941CDD
:10317000E40A04D112051144DB071944F0BDD90754
:10318000204B194300E0D9070020F0BD0029DDD114
:10319000002CDBD1F0BD0132C6074008CD07284323
:1031A0004908002EE1D0D9E73C2E29DA203E4037ED
:1031B0001400BC4000D00124F24014431A00BB406C
:1031C0001C43D317ACE7AC46202F08DA20360400A6
:1031D000B4400D00B540F84039412843A5E73C2FE5
:1031E0000CDA203F40360400B44000D00124F840FF
:1031F00004430800B1400C43C117EAE7100019006E
:10320000002494E70000F07FF0B50C0D661E360533
:10321000891BE60A6405640D02D0651CED0A04D022
:10322000002001210905803C2403A4461C0D671ED3
:103230003F05DB1BE70A6405640D02D0651CED0A3F
:1032400004D0002201231B05803C24037740644402
:1032500097B484B296B27443070C7E43150C6F4347
:1032600080B26843361802D3012000043F183004AE
:10327000350C00197D41844688B29AB250430C0C3B
:1032800062431F0C7C438EB27E43921902D3012607
:103290003604A4191604170C3618674101BC81B214
:1032A0009AB25143040C62431B0C5C4380B25843F6
:1032B000121802D30120000424181004130C401823
:1032C00063412D185E410020474106BC88B293B28D
:1032D00058430C0C6343120C544389B251435B189E
:1032E00002D301210904641819041A0C0918624157
:1032F0006D1856410020474118BCF902720D114368
:10330000F0026A0D1043ED020A0D03D16D19404120
:103310004941013B124E9B1B7600B3420ED26D0019
:1033200007D30130002671416646354301D140087C
:1033300040001B05C918E4072144F0BD0BDA013336
:1033400006D1013004D101314F0D01D04908F2E717
:10335000E1070020F0BD013631050020EBE7000059
:10336000FF030000F0B51C0D671E3F05DB1BE70ADD
:103370006405640D02D0661CF60A04D00022012305
:103380001B05803C2403D0252D060026F6432E661F
:103390001E096E66CE0FF619B44649004F0D02D0D5
:1033A0007E1CF60A03D000200021403F3F033E1B55
:1033B000B600B444013F7F05C91B49082E6F013692
:1033C00076089C02950D25437543ED137543AD13A7
:1033D00001356D10F603761B0CB4CC02450D2C4361
:1033E000A2B2B3B25A43270C7B43350C6F43A4B24D
:1033F0006C431B1902D3012424043F191C041D0C27
:10340000A4187D4124196D41009A91B2ACB2614378
:10341000170C7C432B0C5F4392B25A43A41802D37F
:1034200001221204BF182204230C52187B41019C74
:103430006C431B19520ED9010A434401A01A81B2F0
:10344000B2B2514303145A43360C734387B27743E5
:10345000D617D21900277E4136049B191704160C83
:103460007F185E417316ED18F30100268033754115
:10347000A90F06D16400690AE8055B0A184309D25E
:103480002FE00422944480337541A90AA8059B0AC1
:10349000184326D3404149412404009A019B0D0062
:1034A0005543641B4343E41A95B286B27543170C27
:1034B0007E43030C5F4392B25A43B61802D30122F3
:1034C0001204BF183204330C52197B4152429C4102
:1034D000002C02D40022013051414008CA07104399
:1034E000490802B06246D7079210084BD218084B21
:1034F0009A4203D212058918C919F0BD0020002A8A
:1035000001DC3900F0BD01331905F5E7FD030000CA
:10351000FE070000002200B5203200F004F8080089
:1035200000BD000000220B150AD410B5944600F02F
:10353000A7F81414013400DA0021CB17144C2047EB
:103540000020002170476244343A0CD40C2A07DA78
:1035500004009140904052422032D440214310BD9B
:10356000D843D94310BD203207D40C469440524270
:1035700020321141D040204310BD0800C91720322D
:1035800003D452422032104110BD1800190010BD62
:10359000473500104A00520D144BD21A13DDFF2A92
:1035A0001EDAD205CB0FDB071A43C300400F090315
:1035B000490A084310435B0001D301D00130704732
:1035C0004308FBD2704702D0C80FC00770470A03F8
:1035D00012130132F8D1420F072AF5D1012200E07F
:1035E000FF22C80F00028018C0057047800300004A
:1035F00000210A00002104E000210A00C11704E0B4
:103600000022002306E0C0460022CB175840594054
:10361000C01A994130B5184CA21A002903D10100F3
:1036200010D00020203A4C1512D104D2013A0018D3
:1036300049414C0DFAD3114CA24204D2120589180B
:10364000DB07C91830BDD243520D00200021F5E739
:1036500003D4013A00184941FBD50B324405C00A96
:103660004D052843C90A640003D00024604161412C
:10367000E1E7E0D34408F8E732040000FE07000069
:103680000A0DCC0F531E1B05C91A520503D3C9439B
:10369000404200D30131520D03D0531CDB0A07D046
:1036A000121B00206400611C89078912803A1203F2
:1036B000014BD21A70470000FF03000051434343FF
:1036C000C9188C46110C83B24B4310B4040C6143EF
:1036D00092B280B2504362431C041B0C001910BC10
:1036E00059411304120CC018514161447047000045
:1036F0004840414048400E4B5B6818470C4B1B68E4
:1037000018470C4A936F9B0802D2094BDB68184795
:10371000F0B5146E556E576F166FFFF7F6FF054A3A
:103720001466556657671667F0BD014B9B681847CE
:1037300048640020000000D007B5484041404840A0
:1037400001E0C04607B54200120E03D0FF2A03D1A4
:10375000420218D8C00DC0054A00120E03D0FF2A3D
:1037600003D14A020FD8C90DC9050122414005D431
:10377000414001D5814207BD884207BD0143491838
:1037800001D0C043001807BD00B5FFF7DBFF01D033
:10379000002000BD012000BD00B5FFF7D3FF804130
:1037A00000BDC04600B5FFF7C7FF01D9002000BD2E
:1037B000012000BD00B5FFF7BFFF804100BD491AE1
:1037C000002807D108467047C10FC90700D54042FD
:1037D000002817D0F44603B40B4B1B68984706BC6F
:1037E00081409E384042803107D20B0607D0490005
:1037F000490AC0051043084360470130F8E7490A09
:103800008902F5E7704700001076002041000A0E9B
:1038100080231B067E2A0BDD9E3A0BDAC11740027D
:10382000400818435242D040490001314843704794
:1038300000207047C00FC01801387047C0420DD338
:1038400000B540004008002100F012F8002801D423
:10385000404200BD8020000600BD0000034BDB6934
:10386000FC4618471CDF2139001000004864002086
:10387000014B5B6A1847000048640020034BDB6F74
:10388000FC4618477CDF39390010000048640020EE
:10389000132310B512481C78FEF7F6FD0100012C29
:1038A0000AD003DD80220F4800F0DCF80E48FEF756
:1038B000E3FD0E4B186010BD0A4C5422200000F0AE
:1038C000D1F80B4B6365A365E36523666366A36666
:1038D000E36623676367A367E3672362E361E5E762
:1038E00053460000486400204C330000107600204E
:1038F000F538001007B5604601880A0A0230DF2A51
:10390000FAD1C9B2820804D3028840880004104367
:1039100000E00068014A5050039007BD4864002051
:103920000021C2158032803201D0024A10470020A7
:1039300070470000CD2A0000C30FDB0741000A0ECC
:1039400007D0FF2A08D00909054A891819434007FA
:1039500070471900002070470249C918FAE70000B3
:10396000000000380000F07F70B504000A4E3000FF
:1039700013F086FE200012F0B7FB0500300013F0B4
:103980000FFE002D05D0054B2C199C4201D82800B4
:1039900070BD0348FDF782FC541B0020000004208A
:1039A0003C780110F8B506000C000C4F380013F0FD
:1039B00067FE2100300012F0EFFA0500380013F026
:1039C000EFFD7443002D05D0054B2C199C4201D806
:1039D0002800F8BD0348FDF761FCC046541B0020D9
:1039E000000004203C78011070B505000C000B4E5F
:1039F000300013F045FE2800210012F0E5FE05001E
:103A0000300013F0CDFD002D05D0054B2C199C4244
:103A100001D8280070BD0348FDF740FC541B00206E
:103A2000000004203C78011070B50400054D28000A
:103A300013F026FE200012F061FB280013F0B0FD09
:103A400070BDC046541B002001480421014B18479B
:103A5000A011002099240010014B1B68184700009A
:103A6000A0110020014B5B6818470000A011002046
:103A7000EFF3108C72B6074B1A68002AFCD0BFF324
:103A80005F8F41680068BFF35F8F00221A608CF37C
:103A900010887047340100D030B514001D00EFF3DA
:103AA000108172B6074B1A68002AFCD0BFF35F8FF3
:103AB00004604560BFF35F8F00221A6081F31088B5
:103AC00030BDC046340100D030B5010014001D00E7
:103AD000EFF3108C72B609480368002BFCD0BFF3DB
:103AE0005F8F0A684B680C604D60BFF35F8F0021E9
:103AF00001608CF310881000190030BD340100D033
:103B00009A4200D2885470477047C046F8B557466D
:103B10004E464546DE46E0B599460A9B07009A4662
:103B20000D9B8846934615000B9E9B0710D10C9B5E
:103B30009E420DD29D1B14000E005D4422004B4698
:103B4000013431002020B847A542F7D1B0460B9E82
:103B5000002E27D0444675195346AA1B013E985D96
:103B600021004B46B847002EF6D123002C00984682
:103B70000D9B9B070FD55B46E51A0C9BAB420AD900
:103B80004646984622004B46310020200135B84772
:103B90000134A845F6D82000F0BCBB46B246A94681
:103BA000A046F8BD2C00E3E7F0B54F464646D646A2
:103BB000C0B584B098460EAB1B78129F99469446C8
:103BC0000D9C109B119EBA0725D4002E4BD19C4210
:103BD00000D3BFE001223A4092461F2C00D9B8E042
:103BE0000C9A551E302201E0202C03D001342A55B6
:103BF000A342F9D85246002A0DD0A6420BD9202C58
:103C000044D00C9A551E302201E0202C3ED00134C5
:103C10002A55B442F9D1FA064DD57A053FD4002C85
:103C200039D10F9B102B00D179E00F9B022B00D1D3
:103C30008AE030230C9A012413704B46002B3FD0AE
:103C40002D230C9A135501340C9B62460093039765
:103C5000434602960194FFF759FF04B0E0BCBA4610
:103C6000B146A846F0BD012215003D40AA463A42A1
:103C70002FD04A46002A02D10C323A4200D0013EEF
:103C80009C42BAD21F2CABD9202E27D92024FA0669
:103C9000DAD57A0503D4A3422DD0A6422BD00F9BB0
:103CA000102B32D0022B20D0202CCDD030220C9BD8
:103CB0001B191A700134202CC6D04B46002BBFD1E3
:103CC0007B070DD43B07BFD520230C9A1355013435
:103CD000BAE79C429FD21F2C00D881E720249AE7A4
:103CE0002B230C9A13550134AEE7202CACD00C9B3F
:103CF0001B1901343AE0631E012C92D00F9A102A4E
:103D00002AD0022A2FD01C00D0E7BB060ED4202CCC
:103D10009AD00C9B1A19013478231370C4E7BB06A0
:103D20000DD478230C9A01241370BFE7202C00D106
:103D30008AE758220C9B1B191A700134B4E75823E8
:103D40000C9A01241370B1E70C9A603301241370AC
:103D5000ACE7202400265EE7023CBA06E9D40C9AC0
:103D600012191C00D8E70C9A9246534462221A702A
:103D70009AE7C04610B5002800D110BD01F0DEFA68
:103D8000FBE7C046F0B5DE4657464E464546E0B531
:103D90009BB09B46249B89469846259B0B900C9292
:103DA0004046424619009A46FEF7E9FF002800D037
:103DB000D8E0012240465146774B5242FEF7DAFFE7
:103DC000002800D0CEE0012240465146734B5242BB
:103DD000FEF7BAFF002800D0C4E0002200234046CE
:103DE0005146FEF7B1FF002800D0B9E142465346E4
:103DF0000A9209938023289ADB001A400E92289A8F
:103E00001A4201D1062326930A9A099B16001343EE
:103E100000D0C7E0289B002500261B0500D49BE1AD
:103E200000230D93269A0D9B9A4200DC9FE1D01A45
:103E3000431E26938023289ADB001A430023002781
:103E400028920D93279B0024BB4200D9DC1B022340
:103E5000289A1A400E92289A134203D07B427B4143
:103E60005B421C400D9B002B07D00A9809992A0041
:103E70003300FEF708FF0A90099100220023404614
:103E80005146FEF761FF002805D0802000068446D9
:103E9000099961440991289A414B0B9D1340049361
:103EA000269B0A9A0293099B039400920193494628
:103EB0005B4628000C9A00F08BF90400002F62D0BA
:103EC000289B220098061F23C0179843631C98461E
:103ED00049465B466530A8470D9B0025DA179C18BC
:103EE000DB0F9A465440013F01E0202D13D00AAA6F
:103EF00094461F23200063440A2101355E19FEF712
:103F000075FC3031317020000A21FEF76FFC26006D
:103F10000400092EE9D805230693002304930A33ED
:103F20000393534605970B9F029312AB00934246AF
:103F30005B46494638000195FFF736FE0E9B0400AC
:103F4000002B20D00C9BC51A279BAB421BD91E000F
:103F500022005B46494620200135B8470134AE4275
:103F6000F6D810E0289B42460493279B49460393CA
:103F7000269B0B9802935346009201935B460C9A42
:103F800000F026F9040020001BB0F0BCBB46B2468E
:103F9000A946A046F0BDC046FFFFEF7FFFFFEFFF41
:103FA000FFF7FFFF734B099F9C467800400D60446C
:103FB000FEF7F6FE704A714BFEF783FE704A714BB6
:103FC000FEF758FE3B03704A1B0B1A4304000D001A
:103FD000300011006D4B0022FEF743FE6C4A6D4B22
:103FE000FEF76FFE02000B0020002900FEF742FEE4
:103FF000FEF7EEFE0D90FEF7D3FE674A674B040016
:104000000D00FEF75EFE0022654BFEF733FEFEF765
:10401000DFFE644A0600644B20002900FEF751FED3
:10402000040030000D000F96FEF7BAFE5F4A604BA9
:10403000FEF747FE02000B0020002900FEF711FEEC
:1040400002000B0006000F00FEF73BFE32000400EA
:104050000D003B0030003900FEF70CFE00221090EE
:104060001191544B20002900FEF70DFE0022524B07
:10407000FEF700FE02000B0020002900FEF703FE01
:1040800000224E4BFEF7F6FD02000B002000290037
:10409000FEF7F9FD0D008021040032003B000020F6
:1040A000C905FEF7DEFD02000B0020002900FEF727
:1040B000E1FD02000B0010981199FEF7E4FD0022CB
:1040C000314BFEF7D7FD3E4B0F9C9C4664440022CB
:1040D0002305FEF7F6FD05000E0002000B000A980E
:1040E0000999FEF731FE00280AD00D9B2800013BFC
:1040F00031000D930022304BFEF7C5FD05000E0088
:10410000C6270D992B0063318F42BF4128997F420A
:104110000437090500D495E6334300D182E6099CB3
:10412000284A2100284B0A98FEF71CFE002808D0D8
:1041300000222100254B0A98FEF706FE002800D039
:1041400070E6269B002B00D17CE60E9B5A1E934105
:10415000269AD31A269375E6002304270D9371E659
:1041600043460A9380231B065344099342E60023E7
:1041700026935FE601FCFFFFFB799F501344D33F7A
:10418000B3C8608B288AC63F0000F03F0000F83FAC
:1041900061436F63A787D23F71A379094F930A40A8
:1041A0000000E03F1655B5BBB16B0240EF39FAFE97
:1041B000422EE63F00002C40000024400000184042
:1041C000FF0300002D431CEBE2361A3F80842E4192
:1041D000F0B54E46DE4657464546E0B597B099469F
:1041E000209E219F229B8346984607910C923B007C
:1041F000320030003900FEF7C2FD002800D0A9E1EE
:10420000012230003900CA4B5242FEF79DFD0028C2
:1042100000D0E1E0012230003900C64B5242FEF7E7
:10422000A9FD002800D0B7E0002230003900C24BC1
:10423000FEF7A0FD002800D099E0002230003900F0
:10424000BE4BFEF781FD002800D090E00022002345
:1042500030003900FEF778FD002800D0B1E00023DF
:104260000D93249B5B0501D40623984608AB9C461E
:104270001722002430234146624404E001341355E0
:104280000139202C01D00929F8D88846300039009E
:10429000FEF79EFD4346DA00A94B05009B181A68FD
:1042A0005B6808920993FEF77BFD02000B0030006B
:1042B0003900FEF7D6FC089A099BFEF702FD0A902A
:1042C0000B91FEF7A9FD8246FEF766FD02000B008A
:1042D0000A980B99FEF7C5FC00229A4B0A900B91A5
:1042E000FEF748FD002800D1C0E001239C46E244CF
:1042F0005046FEF751FD02000B0008980999FEF7A1
:1043000029FD002802D000239A4601354346002BA0
:104310006AD008AB17269C4608956644554614E0BB
:1043200001235B4243440A2128009A46FEF75EFAC5
:10433000013430313719397028000A21FEF756FA56
:10434000092D00D8D0E0D0460500202CE8D10EABD6
:1043500098460323249A1340012B00D196E0202392
:10436000249A01930392239A434602921EE0249BCF
:1043700058460493239B00960197039343460C9A57
:10438000029307994B46FFF7FDFC17B0F0BCBB4604
:10439000B246A946A046F0BD249B5B070ED403227B
:1043A000694B2499019203912399029100935846F5
:1043B0004B460C9A0799FFF7A9FBE6E70422634BEB
:1043C000EFE73B00320000200021FEF74AFC01230A
:1043D00006000F000D9344E7249B0393239B029355
:1043E000042301935A4BE1E72800FEF7D9FC0200B1
:1043F0000B0030003900FEF734FC524B002206005F
:104400000F00FEF7A1FC0EAB984600280AD100224F
:10441000300039004B4BFEF7ADFC002802D1EB0712
:1044200000D50135202C94D008AA944617232800E3
:1044300063440A2101341E19FEF7B0F93031280017
:1044400031700A21FEF7AAF9051EEBD10323249A45
:104450001340012B1BD0202C00D180E70D9B002B9B
:1044600035D02D224146631C0A5579E700220A986F
:104470000B99344BFEF768FC002800D046E7534602
:10448000002B51D101239C46E2443FE72024239B8B
:10449000002BE0D00D9B002B03D1249A0C33134248
:1044A00002D0239B013B2393239BA342D3D908AB88
:1044B0009C46172230236244202C00D14FE72399D9
:1044C000013413558C42C6D0202CF8D147E7249BE9
:1044D0005B0724D4249A2300120700D440E720224B
:1044E000414601330A553BE75746089D202C00D131
:1044F0002DE7220030214046002F09D00132B1546F
:10450000202A00D123E7D3431B191B18002BF5D118
:104510000EAB98462E234146541C8B5482E72B2227
:104520004146631C0A551BE7DB0700D4EEE6A9E70A
:10453000FFFFEFFFFFFFEF7F65CDCD4165CDCDC123
:10454000E07A01100000E03FE4780110E878011003
:10455000F4780110249B0393239B0293032301937C
:10456000004B23E7F0780110F0B5DE464E46574683
:104570004546E0B59FB01C00289B91460993C94A67
:10458000C94B8B4608901A60002900D118E200231D
:1045900020789A46002800D11AE226001D005C46C9
:1045A0000AE02A006F1C4B46089D2100A8473D00E9
:1045B00001363078002870D02528F2D110239B4690
:1045C000083B9A46043B9846023B00219C46721CDD
:1045D000107816000300203BDBB2102B03D8B34F3A
:1045E0009B00FB589F460300303B092B32D9002328
:1045F0000A932A2868D0002398462E283ED003002C
:10460000683BDBB2122B1CD8A94A9B00D3589F46AB
:10461000012301321943DBE7634601321943D7E72F
:10462000434601321943D3E75B4601321943CFE7D2
:10463000534601321943CBE780235B00707819435E
:1046400001360300253BDBB2532BAAD8994A9B00C5
:10465000D3589F4600270300B800C0190136400018
:10466000C018337830381A00303A0700092AF3D9D5
:104670000A901800002398462E28C0D18023707815
:10468000DB0019430300303B721C092B00D8A1E169
:104690002A2800D1B2E11600B1E7A346AA462C00B1
:1046A000D14503D801235B424B449A464B465246C0
:1046B00059460020089DA84720001FB0F0BCBB460B
:1046C000B246A946A046F0BD099B40CB0A96002EF3
:1046D00003DB50780993561C8DE72838014370425C
:1046E0000A9009935078561C85E7782800D1DFE1BD
:1046F000582800D14CE26F2800D14FE3622801D145
:1047000000F030FC10230A009A430B92692801D074
:1047100000F0A9FC0A230C934B0500D5D0E10B9ABD
:10472000802311009B0019408B461A4200D0A1E261
:10473000802311005B0019408A461A4200D0B6E37C
:1047400013005B0600D5EDE2130009991B0601D4A6
:1047500000F076FC08C91BB2D8171A18424092B272
:1047600009919346DA0F1292002B09D1802310226F
:104770000B99DB000B4091430B91002B00D0E4E23E
:104780000B9A6123920600D541230EA91F228C4665
:10479000DBB262440A3B5F461395A34655460C9C28
:1047A000B2460D9316000AE03033DBB20135735583
:1047B000A74200D2EDE2202D00D1EAE2070021005D
:1047C0003800FEF713F8CBB20929EDD90D9A9446BB
:1047D0006344DBB2EAE780239B007078194301361B
:1047E0002FE77078682800D1CDE180230136194386
:1047F00027E770786C2800D1BFE180235B00194364
:1048000001361EE7462800D19BE10722099B04914F
:10481000073393430A9A19000392424602920CC945
:1048200008980092019309912A004B462100FFF756
:10483000CFFC01360500BCE62A006F1C4B46089DE4
:1048400021002520A84701363D00B2E68B0700D4A1
:10485000ADE1099B2A009A466B1C9846534601CB52
:1048600021009A46089F4B46C0B2B8470A9B9C4617
:104870006544012B00D886E2089B4746B0462600D7
:104880004C4699463A002300013731002020C847A2
:10489000AF42F7D1A146534634004646099301364C
:1048A00087E6C0466945001054750020FC78011069
:1048B000407901108C790110099B04CB9B4643463B
:1048C0000992002B00D1C6E013789C46002B00D142
:1048D000BDE34346013B099A0133D0180A9F1300F8
:1048E00001E0834203D05A780133002AF9D1099AB2
:1048F0000A979B1A0B9380230A00DB001A400C9244
:10490000194204D00B9B434501D943460B93022324
:104910001A000A400D920B4200D187E16046002840
:1049200000D168E10C9B002B00D10DE1A844C246E8
:10493000099B57465B1B9846089BB2462A002600F7
:104940004C46994609E023003100551CC8474346B0
:10495000585D002800D126E12A009742F3D1A146F4
:104960003D00340056460D9B002B00D043E15B46D2
:10497000013609931DE6099B1A0008CA9246002BCE
:1049800048D0212211438B460EA884461F21614442
:10499000099500220F27A4460D0002E0202A0CD022
:1049A0000B003C001C4020003730092C00D8073891
:1049B0000132A85419090F2BF0D86446099D32E042
:1049C000DC4B2078089300239A46002800D0E4E5C9
:1049D000002465E6434606000A9F9800C01801328D
:1049E000400080191678030030003038303B092829
:1049F000F3D93000984616000A9700E6099B023664
:104A000004CB9046D2434046D217104080460993CB
:104A10003078F4E5102208009043113210438346A9
:104A200000224905B0D55B4606930823059343460B
:104A30000493102303930023029316AB0192009377
:104A40002A004B4621000898FFF7AEF853460500B0
:104A500001360993ADE513789C46002B00D1F7E2AF
:104A600002235B4237E7202302009A43472A04D1FE
:104A700080231B01194302239843452801D1202399
:104A800019430722099B0491073393430A9A19009B
:104A90000392424602920CC9089800920193099130
:104AA0002A004B462100FFF76DF90136050080E52D
:104AB00010230C930C230A009A430B924B0503D549
:104AC00001230B9A9A430B92692800D127E66428A8
:104AD00000D124E60B9A802311009B0019408B46DD
:104AE0001A4200D066E1802311005B0019408A461B
:104AF0001A4200D039E213005B0600D53CE11300F6
:104B00001B0600D4A6E2099B04CB1204120C9346A8
:104B100009935B46002B00D09AE10B9A10331100E9
:104B200099430B91520500D492E100239A460B9BC6
:104B300006930A9B0593434604930C9B039300231F
:104B40000CE12023194360E6099B0A9A5B1B9846F7
:104B50004B4691461F00B2462600089C2A003B00A7
:104B60003100A04743460135585D0028F6D14A463A
:104B70003400B94656460A92F5E6C0239B00B07849
:104B8000194302365DE5C023B0781943023658E573
:104B90000C230A009A4314331A43103B0B920C93D4
:104BA0004B058DD496E7A14634005646DBE60A9ABB
:104BB000012A00D853E26B1E9F18089BB0462600BE
:104BC0004C4699462A002300013531002020C84771
:104BD000BD42F7D1A14634004646099B3A0001CBBD
:104BE000210098467D1C4B46089FC0B2B8474346FB
:104BF00001360993DDE40B9B0A9AA8469A4200D835
:104C0000B5E694466544ED1A089B4746B046260033
:104C10004C4699463A002300013731002020C8470E
:104C2000AF42F7D1A14634004646A0E60B9A0A9956
:104C3000531C914200D814E24B199B1A1F00089B89
:104C4000B24626004C4699462A0023000135310021
:104C50002020C847BD42F7D10A9BA14601330B93E0
:104C6000099B34001B7856469C466046002800D0BD
:104C700058E67CE60722099B0733934301329446AA
:104C80009C4462465F6809921A68FB17109311935F
:104C900010981199030053400E930B007B400F9323
:104CA00094460E9A0F9B121A8B410E920F93FB0F94
:104CB0006246129300233A439B463DD00B9A6123F0
:104CC000920600D541230022DBB20EA90A3B8C4696
:104CD00092460D9343461F326244139515965546EE
:104CE0000E9E0F9FA24690460C9C14930CE030320F
:104CF000D2B2434601355A55BB4500D18AE1202D39
:104D000000D18AE106000F002200002330003900A4
:104D1000FDF7AAFDD2B2092AE9D90D9B9C4662444F
:104D2000D2B2E6E7FF23099904C913401A0009919A
:104D300017E5C046093B00100B9A10331100994348
:104D40000B915205BAD500239A460B9B06930A9BFA
:104D50000593434604930C9B0393129B0293534683
:104D6000019316AB2A00009321004B460898FEF7EA
:104D70001BFF013605001CE4FF22099B02CB1140FA
:104D80008B460993C5E65346454609930136FFF71E
:104D900010FC56465C46AA46139DD6E708230C93A2
:104DA0000B910B99642800D084E60B9B5B0500D522
:104DB00086E6B4E40722099B073393430132944605
:104DC0009C44624609921A685B6810009B46130077
:104DD0005A46134307D10B9A1033110099430B9194
:104DE000520500D5A1E60B9A6123920600D5412316
:104DF0000022DBB20EA90A3B8C4692460D93434635
:104E00001F3262445F461295A34655460400B246DF
:104E100090460C9E13930DE03032D2B243460135DA
:104E20005A550023BB4200D100E1202D00D100E102
:104E300004000F003200002320003900FDF714FDAC
:104E4000D2B2092AE8D90D9B9C466244D2B2E5E76A
:104E50000B9A6123920600D54123DBB20EA90A3BCF
:104E60001F228C460D93230062445C461295170066
:104E700055469B46B2460C9E08E03033DBB2013506
:104E80007B55B4420ED3202D0CD0040031002000FD
:104E9000FDF7ACFCCBB20929EFD90D9A94466344D7
:104EA000DBB2ECE756465C46AA46129D3FE6099BFC
:104EB0001A0008CAD91713925A184A409246DA0FB4
:104EC0001292002B08D1802310220B99DB000B409B
:104ED00091430B91002B2BD10B9A6123920600D5A5
:104EE00041230EAA1F279446DBB20A3B0D95674467
:104EF0005D460993A3465446B2460C9E08E0303303
:104F0000DBB201357B55B4420ED3202D0CD004000A
:104F100031002000FDF76AFCCBB20929EFD9099ACC
:104F200094466344DBB2ECE756465C46AB460D9DC7
:104F30000B9B2A0006930A9B21000593434604938A
:104F40000C9B08980393129B013602935B460193D6
:104F500016AB00934B46FEF727FE139B0500099303
:104F6000FFF727FB02230C931AE7099B04CB924619
:104F70001293002A08D1802310220B99DB000B40EA
:104F800091430B91002B2BD10B9A6123920600D5F4
:104F900041230EAA1F279446DBB20A3B0D956744B6
:104FA0005D460993A3465446B2460C9E08E0303352
:104FB000DBB201357B55B4420ED3202D0CD004005A
:104FC00031002000FDF712FCCBB20929EFD9099A74
:104FD00094466344DBB2ECE756465C46AB460D9D17
:104FE0000B9B2A0006930A9B2100059343460493DA
:104FF0000C9B08980393002302935B46019316AB26
:1050000000934B46FEF7D0FD129B05000993013635
:10501000FFF7CFFAB44200D871E6149B54460E96BF
:105020000F97AA469846159E139D8EE6A64200D875
:10503000FBE6139B56469846AA465C46129D76E5CB
:1050400008C9D8171A1842400991FFF78AFB0023B4
:105050000B9350E4099B04CB9346099359E52F0029
:10506000BBE50B9301E6063B0C939AE60CB410B536
:1050700084B006AC08CC0A000094010004480394F4
:10508000FFF772FA04B010BC08BC02B01847C04663
:10509000013B001000B583B0009313000A0001002B
:1050A0000248FFF761FA03B000BDC046013B0010A3
:1050B00010B5094A0300146884B0002C08D00122FE
:1050C00000910648524203A9A047012004B010BD38
:1050D00000F080F90020F9E754750020753D0010BC
:1050E00000BEFDE7094A03001068002805D0084902
:1050F000C3188B4207D81360704706480449C31889
:1051000010608B42F7D901204042F5E74071002042
:10511000000004209877002010B5FFF7E1FFC0469B
:1051200070B5FDF70BFA074D074EB54209D20024C2
:10513000013E761BB60808CD984723000134B342E0
:10514000F9D170BDCC760110DC760110030010B5EA
:10515000080011001B68984710BDC046030010B539
:10516000080011001B68984710BDC046F0B5DE4628
:1051700057464E464546E0B585B017001C00060070
:105180000D00FCF79DFF0023314A12184B41002B04
:1051900059DB304908008A4612F04AFA01906B1C2C
:1051A00003D1300011F084FD0500002C26D12A4BDC
:1051B00098462A4B1C68002C15D0002F21D1284F6F
:1051C00002E02469002C0ED02368002BF9D03B6844
:1051D000002B01D0A342F4D120002A003100C047A7
:1051E0002469002CF0D1019B002B28D1280005B0A8
:1051F000F0BCBB46B246A946A046F0BD194B984646
:10520000D7E7174B994602ABDF1D0A239B4602E006
:105210002469002CE7D02368002BF9D04B461B688B
:10522000002B01D0A342F3D12A0031002000C04757
:105230005B460122390020003B70C047E8E750463A
:1052400012F0AEF9D2E70122074B5242A1E7C04665
:1052500040420F005C1B00204D510010E470002004
:10526000EC7000205D510010FFFFFF7F0A4A1368B9
:10527000002B05D10CE01A001B691032002B07D05F
:105280009842F8D1002902D1036913600161704787
:105290000029FCD01060FAE7E470002010B500F09F
:1052A000D7FA10BDF0B5CE464746040080B583B0AE
:1052B000FCF706FF2600002736184F41002F30DB91
:1052C000B9461A4B1A4D984643461C68002C03D128
:1052D00016E02469002C13D02B68002B01D0A342C8
:1052E000F7D1A368002BF4D0012101A8984700282A
:1052F000EFDD6B46187903B0C0BCB946B046F0BDCF
:105300000C4B5A6A4A4507D39B6AB34201D24A45BD
:1053100002D002204042EEE701200021FCF7DAFE35
:10532000D2E70126044B76429946CAE7E470002092
:10533000EC70002000400540FFFFFF7FF0B5CE4637
:10534000474680B583B06B460600DD1D2870FCF72C
:10535000B7FE00231A4A12184B41002B2BDB1949C8
:105360000800884612F064F9174B81461C68002C2F
:1053700014D0164F02E02469002C0FD02368002BB4
:10538000F9D03B68002B01D0A342F4D120000122C8
:105390002900FFF7E3FE2469002CEFD14B46002BD8
:1053A00005D1300003B0C0BCB946B046F0BD4046A0
:1053B00012F0F6F8F5E70122054B5242CFE7C0465E
:1053C00040420F005C1B0020E4700020EC700020C5
:1053D000FFFFFF7F70B5040011F06AFC012301009C
:1053E000050001222000FFF7C1FE084B1C68002CBD
:1053F00006D06368002B05D098472469002CF8D1AB
:10540000280070BD2469002CF3D1F9E7E470002076
:105410007047C0460022014B1A70704794770020F5
:105420004B790020FF2B0BD18B79002B08D1CB7946
:10543000012B05D1082A03D98A78024B09301A704A
:105440007047C046947700200120704710B50129AD
:1054500009D115495379107909781B0203430020BB
:10546000994202D010BD0120FCE75378012B08D0EF
:10547000022BF7D1002064220021FCF7A9FF0120B4
:10548000F0E7D37891781B021943DB0507D54A0A68
:10549000100001231A407E331940FDF71FF8012048
:1054A0004A0A4042F5E7C04694770020004870471A
:1054B000507B011070B5050014000120012909D1AD
:1054C00053780020012B05D1637912791B02134315
:1054D000072B00D070BD21002800024A9F3301F045
:1054E00061FAF7E7747B01100123037000487047ED
:1054F000307B011048780B788A7800021843120438
:1055000010439622CB7810B51B060343D20093427A
:1055100000D010BD0022012011004042FCF7DEFF48
:10552000024B1860024B19607047C046506C002057
:10553000546C002010B5024B1878FBF791FF10BD9A
:1055400095770020154B70B51A68002A22D0EFF32A
:10555000108172B610680028FCD0BFF35F8F002264
:105560000F48596002701B68BFF35F8F1A6081F3A8
:105570001088002400250B4E3078FBF765FF0028CB
:1055800004D1002400252900200070BD3078FBF7ED
:1055900067FFF8E7FA240025A400ECE77C750020FB
:1055A000967700209577002070B5040000200E004B
:1055B00001F022FB002835D0002001F033FB002849
:1055C00030D0FCF77DFD0023184A12184B41002B08
:1055D00024DB174D280012F02BF8002822D00020E1
:1055E00001F00AFB00280BD10120002103244042D6
:1055F00000F00AFD6442280011F0D2FF200070BDC7
:10560000002001F00FFB0028EED021003200002026
:1056100001F014FB041EEED1033CECE70122054B24
:105620005242D6E703246442E8E7C04640420F00F6
:1056300028760020FFFFFF7F10B5FCF741FD002317
:105640000E4A12184B41002B13DB0D4C200011F0B9
:10565000EFFF00280CD001200021404200F0D4FCD4
:10566000002001F035FB0028F5D1200011F098FF53
:1056700010BD0122034B5242E7E7C04640420F00F3
:1056800028760020FFFFFF7FF8B5DE46574680B53D
:1056900005000C00FCF714FD0023364A12184B419C
:1056A000002B5ADB344908008A4611F0C1FF00285C
:1056B00003D1C0BCBB46B246F8BD002001F09CFA45
:1056C00000284ED00026002C43DD2C4B9B4614E0D6
:1056D000A919002001F038FB0700012000214042F9
:1056E00000F092FC002001F0F3FAFCF7E9FC234BF8
:1056F000F61918605960B4422BDD002001F046FB1A
:10570000A71B0200B84200DD3A00002AE0D10120C8
:105710000021404200F078FC002001F0D9FA00207E
:1057200001F06AFA002814D0002001F02FFB0028B5
:10573000E1D1FCF7C5FC5B460F001A685B680021ED
:1057400084460F4812184B419F4202D8D3D194454A
:10575000D1D9504611F024FFABE70122094B524248
:10576000A0E700200021054B18605960504611F059
:1057700017FF9EE740420F0028760020406300207C
:1057800020A10700FFFFFF7F30B52A4C85B0002124
:10579000200011F025FF00281CD1274B1A68002A91
:1057A00016D0EFF3108172B610680028FCD0BFF35A
:1057B0005F8F01242148596002781B68D2B20470BF
:1057C000BFF35F8F0020186081F31088002A17D084
:1057D00005B030BD01200021404200F015FC002042
:1057E00001F020FA0500200011F0DAFE002DEFD0C4
:1057F000134B1B68002BEBD0124A10689847E7E761
:10580000FCF73AFA0400FCF75BFCFA220023920052
:1058100012184B41002B09DB01210291002101915B
:10582000094920000091FCF72BFAD1E70122074B30
:105830005242F1E7287600207C7500209677002000
:10584000506C0020546C002045550010FFFFFF7F76
:10585000D02310B51B0684B01C68FCF70DFAFCF7CA
:1058600009FBA04202D0002004B010BD294B00214A
:1058700000201B7801F07EFD27480368002B41D0F3
:105880000120FBF77FFFFF23244C2549207018409F
:10589000FBF700FE20780121FBF7C4FD0520FBF794
:1058A000E7FD002821D1082200211E48FEF7D4F888
:1058B000FCF7E2F90400FCF703FCFA220023920053
:1058C00012184B41002B20DB012102910021019194
:1058D000154920000091FCF7D3F90028C3DB1348D9
:1058E0000121FFF7C3FC0120BEE70120FBF76AFDA1
:1058F00001000C48FBF7ACFF002205200C49FBF728
:10590000F3FDECE7FBF786FFBAE70122094B5242B1
:10591000DAE7C046DC8D011028760020957700205C
:10592000895700107C75002045550010B0110020EB
:1059300035550010FFFFFF7F00487047BC7C011009
:1059400000487047687C011070B504001748037860
:10595000002B21D0002C06D1C1241548154BA400E2
:105960004380048070BD052C1DD8134B1048A40043
:10597000E558811C002304E001330A800231132B17
:105980000ED0EA5CDCB2002AF6D1C0230134E4B2C6
:1059900064009B001C43E4E7112100F017F8D9E7ED
:1059A000CA24A400DDE70020DCE7C046F076002032
:1059B000A070002009040000D07C011010B502483E
:1059C00000F0D8F810BDC046A475002030B54B1EBD
:1059D000012900D1A7E0664A11780D112C0030345E
:1059E0009F2900D9A2E00470012B00D1BEE00F2155
:1059F000147821400C003034092900DD98E044700F
:105A0000022B00D1B2E054782511290030319F2CAF
:105A100000D990E08170032B00D1A7E00F21214035
:105A20000C003034092900DD87E0C470042B00D15C
:105A30009CE094782511290030319F2C00D97FE01B
:105A40000171052B00D191E00F2121400C00303471
:105A5000092900DD76E04471062B00D186E0D47878
:105A60002511290030319F2C00D96EE08171072B60
:105A700000D17BE00F2121400C003034092966DC85
:105A8000C471082B00D171E014792511290030313F
:105A90009F2C5FD80172092B68D00F2121400C0088
:105AA0003034092958DC44720A2B5FD0547925110F
:105AB000290030319F2C52D881720B2B56D00F21E8
:105AC00021400C00303409294BDCC4720C2B4DD022
:105AD00094792511290030319F2C00D907310173A9
